S014000030335F54696D65725F50574D2E73726563FA
S113000045C000004BC0000049C0000047C00000CC
S113001045C0000043C0000041C000003FC00000D4
S11300203DC000003BC0000039C0000037C00000E4
S113003035C0000033C0000031C000002FC00000F4
S11300402DC000002BC0000029C0000027C0000004
S113005025C0000023C0000021C000001FC0000014
S11300601DC000001BC0000019C0000017C0000024
S113007015C0000013C0000011C000000FC0000034
S11300800DC000000BC0000009C0000011241FBEF9
S1130090CFEFD0E1DEBFCDBF0ED040C0B1CF9923AA
S11300A014F480E090E08536910514F084E690E045
S11300B09BBD8ABD089580E687BB82E88FBD8AE137
S11300C08EBD1BBC1ABC19BC18BC84E690E097BD5D
S11300D086BDC8E2D0E00CC0CE01E1DF2FEF81EE97
S11300E094E0215080409040E1F700C00000219648
S11300F0C536D1058CF3C4E6D0E00CC0CE01CFDF09
S11301002FEF81EE94E0215080409040E1F700C051
S113011000002197C832D1058CF7DBCFF894FFCFCC
S9030000FC
