S00E00004C61736572312E73726563EE
S113000045C000004BC0000049C0000047C00000CC
S113001045C0000043C0000041C000003FC00000D4
S11300203DC000003BC0000039C0000037C00000E4
S113003035C0000033C0000031C000002FC00000F4
S11300402DC000002BC0000029C0000027C0000004
S113005025C0000023C0000021C000001FC0000014
S11300601DC000001BC0000019C0000017C0000024
S113007015C0000013C0000011C000000FC0000034
S11300800DC000000BC0000009C0000011241FBEF9
S1130090CFEFD0E1DEBFCDBF1CD032C0B1CF80E402
S11300A087B987E886B9089586B1806486B9349B98
S11300B0FECF24B185B190E0982F8827822B089534
S11300C08538934018F081E088BB089584E088BBAC
S11300D008958FE087BB10926100E1DF82E088BB66
S11300E02FEF8BE792E9215080409040E1F700C068
S11300F0000018BA88B3886088BBD6DFE1DFFACF86
S1070100F894FFCF9D
S9030000FC
