:1000000045C000004BC0000049C0000047C00000D0
:1000100045C0000043C0000041C000003FC00000D8
:100020003DC000003BC0000039C0000037C00000E8
:1000300035C0000033C0000031C000002FC00000F8
:100040002DC000002BC0000029C0000027C0000008
:1000500025C0000023C0000021C000001FC0000018
:100060001DC000001BC0000019C0000017C0000028
:1000700015C0000013C0000011C000000FC0000038
:100080000DC000000BC0000009C0000011241FBEFD
:10009000CFEFD0E1DEBFCDBF2FD055C0B1CF8FEFB6
:1000A0008ABB08950F931F938B019C0140E050E0A1
:1000B000BA0113C08BB38E7F8BBB8BB382608BBBBB
:1000C0008BB384608BBB8BB38B7F8BBB8BB38B7FF2
:1000D0008BBB4F5F5F4F6F4F7F4F401751076207DA
:1000E000730744F31F910F9108958BB381608BBB0D
:1000F0008BB382608BBB0895D2DF24E130E040E017
:1001000050E064EF71E080E090E0CCDF28E230E086
:1001100040E050E064EF71E080E090E0C3DF2CE36A
:1001200030E040E050E064EF71E080E090E0BADF62
:1001300020E530E040E050E064EF71E080E090E0E6
:0A014000B1DFD3DFDACFF894FFCF70
:00000001FF
