S013000030345F50574D5F546573742E737265635B
S113000045C000004BC0000049C0000047C00000CC
S113001045C0000043C0000041C000003FC00000D4
S11300203DC000003BC0000039C0000037C00000E4
S113003035C0000033C0000031C000002FC00000F4
S11300402DC000002BC0000029C0000027C0000004
S113005025C0000023C0000021C000001FC0000014
S11300601DC000001BC0000019C0000017C0000024
S113007015C0000013C0000011C000000FC0000034
S11300800DC000000BC0000009C0000011241FBEF9
S1130090CFEFD0E1DEBFCDBF29D07BC0B1CF80E6AA
S11300A087BB82E88FBD8AE18EBD1BBC1ABC19BC1C
S11300B018BC84E690E097BD86BD12B88FEF84BB70
S11300C00895992314F480E090E08536910514F0A6
S11300D084E690E09BBD8ABD089591B1892319F40B
S11300E081E090E0089580E090E00895D8DFC0E0DA
S11300F0D0E080E1F2DF892B51F080E1EEDF892B43
S1130100E1F7209711F02A9602C0CCE3D0E080E218
S1130110E4DF892B59F080E2E0DF892BE1F7CC336F
S1130120D10511F02A9702C0C0E0D0E080E4D5DF09
S1130130892B31F080E4D1DF892BE1F7C0E0D0E0F6
S1130140C536D10514F0C4E6D0E0DD2314F4C0E0D4
S1130150D0E0209711F48EEF85BBCC33D10511F498
S11301608DEF85BBC634D10511F48BEF85BBC0354B
S1130170D10511F487EF85BBCA35D10511F48FEE93
S113018085BBC436D10511F48FED85BBCE0199DF53
S1090190B0CFF894FFCF8C
S9030000FC
