S019000030355F44434D6F746F725F53657269616C2E73726563F0
S113000045C0000053C0000051C000004FC00000B4
S11300104DC000004BC0000049C0000047C00000B4
S113002045C0000043C0000041C000003FC00000C4
S11300303DC000003BC0000039C0000037C00000D4
S113004035C0000033C0000001C100002FC0000013
S11300502DC000002BC0000029C0000027C00000F4
S113006025C0000023C0000021C000001FC0000004
S11300701DC000001BC0000019C0000017C0000014
S113008015C0000013C0000011C0000011241FBEE1
S1130090CFEFD0E1DEBFCDBF21E0A0E0B1E001C0F1
S11300A01D92AD3CB207E1F72FD053C1A9CF80E632
S11300B087BB82E88FBD8AE18EBD1BBC1ABC19BC0C
S11300C018BC84E690E097BD86BD11BA8FEF84BB5F
S11300D00895992314F480E090E08536910514F096
S11300E084E690E09BBD8ABD089590B3892319F4FA
S11300F081E090E0089580E090E00895909390006E
S113010089B988E98AB90895D2DF87E690E0F6DFF5
S11301107894C0E0D0E081E0E8DF892BD9F081E079
S1130120E4DF892BE1F7CC33D10594F0CE016AE00A
S113013070E0E8D06F5F7F4FEB01CC0FDD1F660FDF
S1130140771F660F771F660F771FC60FD71F02C072
S1130150CCE3D0E082E0C9DF892BD9F082E0C5DFAF
S1130160892BE1F7C634D10594F0CE016AE070E042
S1130170C9D061507109EB01CC0FDD1F660F771FE9
S1130180660F771F660F771FC60FD71F02C0C0E028
S1130190D0E084E0AADF892B31F084E0A6DF892B4C
S11301A0E1F7C0E0D0E08091010190910201019754
S11301B021F5109202011092010180910601803311
S11301C059F0863361F0873369F0883371F08933ED
S11301D079F0813391F40FC0C0E0D0E00EC0CCE3DD
S11301E0D0E00BC0C6E4D0E008C0C0E5D0E005C054
S11301F0CAE5D0E002C0C4E6D0E0C536D10514F0AB
S1130200C4E6D0E0DD2314F4C0E0D0E0209711F47C
S11302108EEF85BBCC33D10511F48DEF85BBC6348D
S1130220D10511F48BEF85BBC035D10511F487EFEF
S113023085BBCA35D10511F48FEE85BBC436D10513
S113024011F48FED85BBCE0144DF65CF1F920F9271
S11302500FB60F9211240BB60F922F933F938F93E7
S11302609F93EF93FF939CB11092020110920101AE
S113027080910001882319F08130C1F034C092309C
S113028091F42091030130910401F901EB5FFE4FD9
S113029090832F5F3F4F309304012093030181E04B
S11302A08093000122C0109200011FC0209103011D
S11302B030910401F901EB5FFE4F90832F5F3F4FB4
S11302C03093040120930301933079F481E090E0AA
S11302D09093020180930101109200011092040195
S11302E01092030102C010920001FF91EF919F91BF
S11302F08F913F912F910F900BBE0F900FBE0F90D7
S11303001F90189597FB072E16F4009406D077FDDE
S113031008D00BD007FC05D03EF4909581959F4FF3
S11303200895709561957F4F0895AA1BBB1B51E1F9
S113033007C0AA1FBB1FA617B70710F0A61BB70B51
S1130340881F991F5A95A9F780959095BC01CD01F6
S10903500895F894FFCFAC
S9030000FC
