:1000000045C0000058C0000056C0000054C00000A9
:1000100052C0000050C000004EC000004CC00000A4
:100020004AC0000048C0000046C0000044C00000B4
:1000300042C0000040C000003EC000003CC00000C4
:100040003AC0000038C0000036C0000034C00000D4
:1000500032C0000030C000002EC000002CC00000E4
:100060002AC0000028C0000026C0000024C00000F4
:1000700022C0000020C000001EC000001CC0000004
:100080001AC0000018C0000016C0000011241FBED6
:10009000CFEFD0E1DEBFCDBF11E0A0E0B1E0E6E4FC
:1000A000F2E000E00BBF02C007900D92AA30B1074A
:1000B000D9F783D0C6C0A4CFAF92BF92CF92DF92C0
:1000C000EF92FF920F931F93CF93DF93CDB7DEB7DD
:1000D00028970FB6F894DEBF0FBECDBF9C010AE093
:1000E00010E0B80187D0FC010F2EF4E6CF2ED12C02
:1000F000F02DC901B6017ED05C018E1B9F0BB801AB
:1001000079D07C836B8308EE13E0C901B80172D00B
:100110007C018A199B09B6016DD07E836D83C9016C
:100120008E199F09B80166D078876F83E050FF4F22
:10013000808188BB88E083B98FED9EE20197F1F75B
:1001400000C00000EB81FC81E050FF4F808188BB44
:1001500084E083B98FED9EE20197F1F700C00000C3
:10016000ED81FE81E050FF4F808188BB82E083B942
:100170008FED9EE20197F1F700C00000EF81F88556
:10018000E050FF4F808188BB81E083B98FED9EE214
:100190000197F1F700C0000028960FB6F894DEBF73
:1001A0000FBECDBFDF91CF911F910F91FF90EF90C8
:1001B000DF90CF90BF90AF9008951ABA8FEF87BBB2
:1001C0008FE082B9C0E0D0E0C99B03C006C0CE0179
:1001D00073DFC99BFCCFC0E0D0E089B38E6F8F3F47
:1001E00031F402C0CE0168DFC89BFCCF2196CE015E
:1001F00063DFEACF97FB072E16F4009406D077FD55
:1002000008D00BD007FC05D03EF4909581959F4F08
:100210000895709561957F4F0895AA1BBB1B51E10E
:1002200007C0AA1FBB1FA617B70710F0A61BB70B66
:10023000881F991F5A95A9F780959095BC01CD010B
:060240000895F894FFCFC1
:0A024600C0F9A4B0999202F88010EC
:00000001FF
