:1000000045C000004BC0000049C0000047C00000D0
:1000100045C0000043C0000041C000003FC00000D8
:100020003DC000003BC0000039C0000037C00000E8
:1000300035C0000033C0000031C000002FC00000F8
:100040002DC000002BC0000029C0000027C0000008
:1000500025C0000023C0000021C000001FC0000018
:100060001DC000001BC0000019C0000017C0000028
:1000700015C0000013C0000011C000000FC0000038
:100080000DC000000BC0000009C0000011241FBEFD
:10009000CFEFD0E1DEBFCDBF4CD053C0B1CF80E4B5
:1000A00087B987E886B9089586B1806486B9349B9C
:1000B000FECF24B185B190E0982F8827822B089538
:1000C0008F3521E0920710F415BA0895813921E0A7
:1000D000920718F480E885BB0895833C21E09207DD
:1000E00018F480EC85BB0895853F21E0920718F451
:1000F00080EE85BB0895873222E0920718F480EFE6
:1001000085BB0895893522E0920718F488EF85BBF6
:1001100008958B3822E0920718F48CEF85BB089580
:100120008D3B924018F48EEF85BB08958FEF85BB11
:1001300008958FEF84BB10926100B1DFB5DFC0DF9F
:06014000FDCFF894FFCF93
:00000001FF
