:1000000045C000004BC0000049C0000047C00000D0
:1000100045C0000043C0000041C000003FC00000D8
:100020003DC000003BC0000039C0000037C00000E8
:1000300035C0000033C0000031C000002FC00000F8
:100040002DC000002BC0000029C0000027C0000008
:1000500025C0000023C0000021C000001FC0000018
:100060001DC000001BC0000019C0000017C0000028
:1000700015C0000013C0000011C000000FC0000038
:100080000DC000000BC0000009C0000011241FBEFD
:10009000CFEFD0E1DEBFCDBF0CD02AC0B1CF90935F
:1000A000900089B988E98AB908955D9BFECF8CB923
:1000B0000895109261008FEF8ABB81E08BBB87E6C9
:1000C00090E0EDDF789480B1882379F01BBA81E36A
:1000D000ECDF8AE0EADF2FEF83EC99E021508040EB
:1000E0009040E1F700C00000EECF81E08BBBEBCF8A
:0400F000F894FFCFB2
:00000001FF
