:1000000045C0000060C000005EC000005CC0000091
:100010005AC0000058C0000056C0000054C0000084
:1000200052C0000050C000004EC000004CC0000094
:100030004AC0000048C0000046C0000044C00000A4
:1000400042C0000040C000003EC000003CC00000B4
:100050003AC0000038C0000036C0000034C00000C4
:1000600032C0000030C000002EC000002CC00000D4
:100070002AC0000028C0000026C0000024C00000E4
:1000800022C0000020C000001EC0000011241FBEBE
:10009000CFEFD0E1DEBFCDBF11E0A0E0B1E0E2EFF5
:1000A000F5E000E00BBF02C007900D92A032B1074F
:1000B000D9F721E0A0E2B1E001C01D92A233B2075E
:1000C000E1F7B5D194C29CCF98B39F70282F207FC1
:1000D000922B98BB98B39E7F98BB98B3926098BBC5
:1000E00032E03A95F1F700C098B39D7F98BBE7ECFA
:1000F000F0E03197F1F700C0000028B3F0E18F9FE6
:10010000C0011124922F9F70892B88BB88B3826015
:1001100088BB32E03A95F1F700C088B38D7F88BB89
:100120008FE99FE00197F1F700C00000089598B3B0
:100130009F70282F207F922B98BB98B3916098BB1B
:1001400098B3926098BB32E03A95F1F700C098B34B
:100150009D7F98BBE7ECF0E03197F1F700C000001D
:1001600028B3F0E18F9FC0011124922F9F70892B3B
:1001700088BB88B3826088BB32E03A95F1F700C053
:1001800088B38D7F88BB8FE99FE00197F1F700C0AE
:1001900000000895CF93DF9300D0CDB7DEB790E88D
:1001A000998390EC9A83E1E0F0E0EC0FFD1FE60FFD
:1001B000F11D9081890F88DF0F900F90DF91CF9113
:1001C0000895EFE3FFE13197F1F700C00000E091FF
:1001D0002701F0912801982F907F9083E0912701CB
:1001E000F091280190819E7F9083E0912701F0910A
:1001F000280190819D7F9083F5E0FA95F1F700004A
:10020000E0912701F091280190819460908325E08E
:100210002A95F1F70000E0912701F09128019081E3
:100220009B7F9083E0912701F091280120E1829F3C
:10023000C00111248083E0912701F0912801808181
:100240008E7F8083E0912701F091280180818D7F4E
:10025000808385E08A95F1F70000E0912701F09115
:10026000280180818460808395E09A95F1F70000F1
:10027000E0912701F091280180818B7F8083089590
:100280002FEF86E791E0215080409040E1F700C0D9
:10029000000088E296DF8CE094DF81E092DF87EE59
:1002A00097E10197F1F700C0000086E08ACF08953A
:1002B00081E087CF0895EFE3FFE13197F1F700C0C8
:1002C0000000E0912701F0912801982F907F908302
:1002D000E0912701F0912801908191609083E09155
:1002E0002701F091280190819D7F9083F5E0FA9598
:1002F000F1F70000E0912701F091280190819460CE
:10030000908325E02A95F1F70000E0912701F09114
:10031000280190819B7F9083E0912701F091280133
:1003200020E1829FC00111248083E0912701F09198
:100330002801808181608083E0912701F09128016C
:1003400080818D7F808385E08A95F1F70000E091C0
:100350002701F091280180818460808395E09A953F
:10036000F1F70000E0912701F091280180818B7F57
:10037000808308950F931F93CF93DF938C01D62F23
:10038000C0E006C0F801EC0FF11D808194DFCF5F63
:10039000CD17C0F3DF91CF911F910F910895019771
:1003A00019F48FE7860F02C08FEB860F0ACF0895EE
:1003B00081B3846081BB82B38B7F82BB2FEF89EFD7
:1003C00090E0215080409040E1F700C0000082B3EF
:1003D000846082BB089581B38B7F81BB8299FECFFD
:1003E000829BFECF8299FECF089520E030E019C0B5
:1003F000829BFECF80EA8A95F1F7829B09C08091AB
:10040000200190E0880F991F81608093200105C032
:1004100080912001880F809320018299FECF2F5F69
:100420003F4F2830310524F3809120010895CF9368
:10043000DF9300D000D01F92CDB7DEB78FEF87BB20
:1004400088E390E0909328018093270119DF61E011
:1004500070E081E090E0A3DF6AE080E091E08ADF75
:1004600061E070E080E090E09ADF67E08BE091E08F
:1004700081DF9EDFB0DFB9DF80933001B6DF80938C
:100480002B01B3DF80932F01B0DF80933101ADDF0B
:1004900080932E01E0913001F0E090912B019F01BB
:1004A000290F311D90912F01290F311D909131019C
:1004B000290F311D482F50E02417350759F0F8DE79
:1004C00061E070E081E090E06ADF65E083E191E067
:1004D00051DFCFCF4AE0BE016F5F7F4FCF0154D0D5
:1004E0006CE070E081E090E05ADF62E0CE010196BE
:1004F00041DF61E089E191E03DDF80912B014AE03D
:10050000BE016F5F7F4F90E03FD061E0CE0101966A
:1005100031DF61E08BE191E02DDF68E070E080E0A9
:1005200090E03DDF80912F014AE0BE016F5F7F4F79
:1005300090E02AD061E070E086E090E02BDE62E09F
:10054000CE01019617DF61E089E191E013DF809130
:1005500031014AE0BE016F5F7F4F90E015D061E04E
:10056000CE01019607DF8FED90E0E1DD61E08DE1E6
:1005700091E000DF2FEF8BE792E92150804090401F
:10058000E1F700C0000075CFBB274A3031F4992352
:1005900022F4BDE2909581959F4F01C0BB27FB01DE
:1005A0005527AA27880F991FAA1FA41710F0A41B6C
:1005B00083955051B9F7A05DAA3308F0A95DA193C6
:1005C000009779F7B111B1931192CB0100C0DC0112
:1005D000FC01672F71917723E1F7329704C07C917A
:1005E0006D9370836291AE17BF07C8F30895F894B6
:0205F000FFCF3B
:1005F20048756D6964697479203D0054656D702099
:100602003D20004572726F72002E002500432000CB
:00000001FF
